:020000040800F2
:100000005810002045010008890400084D0400082C
:10001000850400088D010008CF0E000800000000D4
:100020000000000000000000000000002906000899
:1000300091010008000000001105000815070008E4
:100040005F0100085F0100085F0100085F01000810
:100050005F0100085F0100085F0100085F01000800
:10006000950100085F0100085F0100085F010008BA
:100070005F0100085F0100085F0100085F010008E0
:100080005F0100085F0100085F0100085F010008D0
:100090005F0100085F0100085F0100085F010008C0
:1000A0005F0100085F0100085F0100085F010008B0
:1000B0005F0100085F0100085F0100085F010008A0
:1000C0005F0100085F0100085F0100085F01000890
:1000D0005F010008890B00085F0100085F0100084C
:1000E0005F0100085F0100085F0100085F01000870
:1000F0005F0100085F0100085F0100085F01000860
:100100005F0100085F010008110800085F01000896
:100110005F0100085F0100085F0100085F0100083F
:100120005F0100085F0100085F0100085F0100082F
:10013000DFF80CD000F018F8004800478D110008D7
:10014000581000200648804706480047FEE7FEE7B3
:10015000FEE7FEE7FEE7FEE7FEE7FEE7FEE7FEE777
:10016000B107000831010008064C074D06E0E068C1
:1001700040F0010394E8070098471034AC42F6D3EE
:10018000FFF7DAFFC0140008E014000800BFFEE724
:100190007047000010B5042000F042F850B3164834
:1001A000007804280FD10421144800F042F950B916
:1001B0000120134908700421124800F045F9642019
:1001C00000F064FF13E00C48007805280FD10421EB
:1001D0000A4800F02EF9012809D1002008490870CA
:1001E0000421084800F02EF9642000F04FFF04209D
:1001F00000F010F810BD000046000020000801408B
:1002000047000020001401400149086070470000C9
:1002100014040140014908607047000014040140C3
:10022000014600200022074B1B6803EA0102054B30
:1002300014331B680B4013B10AB1012000E0002009
:100240007047000000040140002123498279002A00
:100250003AD00A46126803689A430B461A600A1D90
:10026000126803689A430B1D1A60027911440A68E8
:1002700003681A430A60184A0832126803689A43EE
:10028000154B08331A601A1D126803689A43124B03
:100290000C331A604279102A0ED11A1F12680368B3
:1002A0001A430D4B08331A601A1D126803681A436B
:1002B000094B0C331A600DE00749427911440A6872
:1002C00003681A430A6005E0027911440A6803686A
:1002D0009A430A60704700000004014030B50022D4
:1002E0008B071C0F0F2303FA04F20B4B8C1053F8EF
:1002F00024309343084C8D1044F8253023468C104D
:1003000053F824308C07240F00FA04F42343024CE2
:100310008D1044F8253030BD080001402DE9F04132
:10032000024600250026002000230024002791F823
:1003300003C00CF00F0591F803C00CF0100CBCF1D9
:10034000000F03D091F802C04CEA050591F800C0F7
:10035000BCF1000F31D0146800202BE04FF0010CED
:100360000CFA00F3B1F800C00CEA03069E4220D15B
:1003700083004FF00F0C0CFA03F7BC4305FA03FCA3
:100380004CEA040491F803C0BCF1280F06D14FF0E9
:10039000010C0CFA00FCC2F814C00AE091F803C08A
:1003A000BCF1480F05D14FF0010C0CFA00FCC2F86B
:1003B00010C0401C0828D1D31460B1F800C0BCF1B3
:1003C000FF0F34DD546800202EE000F1080C4FF0E0
:1003D000010808FA0CF3B1F800C00CEA03069E42CB
:1003E00021D183004FF00F0C0CFA03F7BC4305FA40
:1003F00003FC4CEA040491F803C0BCF1280F05D1BA
:1004000000F1080C08FA0CF8C2F8148091F803C047
:10041000BCF1480F07D100F1080C4FF0010808FAB1
:100420000CF8C2F81080401C0828CED35460BDE8F8
:10043000F0810246002093680B400BB1012000E0E0
:1004400000207047416170470161704700BFFEE7BF
:1004500008B50121202000F06DF80420ADF800005F
:1004600010208DF8030003208DF80200694604482F
:10047000FFF754FF04210248FFF7E6FF08BD000024
:100480000014014000BFFEE77047000070B5002176
:1004900000230F22C47804B3154C246804F4E064EC
:1004A000C4F5E064210AC1F10403CA40447804FAA7
:1004B00003F184781440214309010E4C0678A155BC
:1004C000047804F01F050124AC4005786D11AD00DF
:1004D00005F1E025C5F8004109E0047804F01F05A6
:1004E0000124AC40044D0678761145F8264070BDD5
:1004F0000CED00E000E400E080E100E0024901438F
:10050000024A1160704700000000FA050CED00E09F
:100510007047000029B1064AD2690243044BDA61F0
:1005200004E0034AD2698243014BDA61704700005C
:100530000010024029B1064A92690243044B9A61B5
:1005400004E0034A92698243014B9A6170470000BC
:100550000010024030B500210022002400232D4D60
:100560006D6805F00C0121B1042905D0082923D1BB
:1005700005E0294D056022E0274D05601FE0254D6F
:100580006D6805F47012234D6D6805F48034022502
:1005900005EB92421CB9214D554305600BE01D4D02
:1005A0006D6805F400351DB11C4D5543056002E032
:1005B000194D5543056002E0174D056000BF00BFAF
:1005C000144D6D6805F0F0010909154D6B5C056867
:1005D000DD4045600F4D6D6805F4E061090A104D7E
:1005E0006B5C4568DD4085600A4D6D6805F46051BF
:1005F000C90A0B4D6B5C4568DD40C560054D6D68F3
:1006000005F44041890B074D6B5CC568B5FBF3F5FC
:10061000056130BD0010024000127A0000093D0063
:100620001400002024000020704710B500F002F8EC
:1006300010BD00000CB50020019000903348006808
:1006400040F480303149086000BF3048006800F451
:10065000003000900198401C0190009818B9019852
:10066000B0F5A06FF1D12948006800F4003010B156
:100670000120009001E0002000900098012843D163
:100680002348006840F010002149086008460068CF
:1006900020F0030008600846006840F0020008608F
:1006A0001A4840681949486008464068486008464A
:1006B000406840F4806048600846406820F47C1040
:1006C00048600846406840F4E81048600846006802
:1006D00040F08070086000BF0C48006800F00070B7
:1006E0000028F9D00948406820F003000749486015
:1006F0000846406840F00200486000BF0348406878
:1007000000F00C000828F9D10CBD000000100240D8
:100710000020024010B500F02BFA00F021FA00246E
:100720000CE0084850F8240030B1064850F8240086
:10073000401E044941F82400601CC4B2032CF0DBC5
:1007400010BD00004C00002030B5164800684FF482
:100750007A72B0FBF2F1B1F1807F01D301201DE08C
:1007600021F07F40401E4FF0E022506150170F22D1
:10077000002807DA13071D0E0B4B00F00F04241F8F
:100780001D5503E013071C0E084B1C5400BF00202E
:100790004FF0E022906107201061002008B100BFF7
:1007A000FEE730BD0000002018ED00E000E400E0AE
:1007B00010B51348006840F0010011490860084670
:1007C0004068104908400E494860084600680E49D4
:1007D00008400B4908600846006820F48020086043
:1007E0000846406820F4FE0048604FF41F0088600F
:1007F000FFF71BFF4FF000600449086010BD0000C8
:10080000001002400000FFF8FFFFF6FE08ED00E0D8
:1008100010B501214A4800F0D7F800287ED0012108
:10082000474800F0B3F847480078012876D1464899
:10083000007801281CD145480088401C43490880A5
:1008400008460088B0F57A7F12DD4FF40070404909
:1008500008603E480088B0F5FA6F09DD00203A498B
:1008600008703A4908804FF4C871012000F0B2FDC9
:1008700038480078012813D137480088401C364991
:10088000088008460088B0F5FA7F09DD4FF48060E3
:100890002F49091D086000202F4908802D49087044
:1008A0002E480088002818DD2C480088401E2B495F
:1008B00008804FF4006026490860142000F07AFD9B
:1008C0004FF400602249091D08602448008820B9BF
:1008D00023480078401C22490870224800780128EB
:1008E00007D11E48008820B900201E49087000F07A
:1008F000DBFB1B48007802280BD100F06BFB0020CB
:10090000174908700120184908704721174800F05E
:10091000E0FA1548007808B1154800E00EE00088BC
:10092000401C1349088008460088B0F57A6F05DD41
:10093000002000F015FC00200949087010BD0000DF
:10094000000C004030000020360000203200002063
:10095000100C014037000020340000203E00002031
:1009600038000020390000203A0000200038014003
:100970003C00002021B1028842F08002028004E0A5
:1009800002884FF67F731A4002807047CA43028282
:10099000704721B1028842F00102028004E002881F
:1009A0004FF6FE731A400280704731B1B0F8442010
:1009B00042F40042A0F8442005E0B0F84420C2F31D
:1009C0000E02A0F84420704730B5024600200023F4
:1009D0000024158A05EA0103958905EA010413B18B
:1009E0000CB1012000E0002030BD1AB183890B4317
:1009F000838102E083898B438381704770B5002433
:100A000000220023058C4FF6FE7635400584028CCB
:100A10008388048B4FF68F752C40B51E2C400D88B3
:100A20002C43751E2A400D892A434D882A43144DB4
:100A3000A8420BD0134DA84208D0134DA84205D0B0
:100A4000124DA84202D0124DA84213D14FF6F775AD
:100A50002A404D892A434FF6FB752A408D882A4348
:100A60004FF6FF652B404FF6FF552B408D892B43EA
:100A7000CD892B4383800483CD888586028470BD15
:100A8000002C01400034014000400140004401407E
:100A9000004801400A460021018B4FF6F7731940C8
:100AA00011430183704702884FF6FF431A400280CA
:100AB00002880A43028070478186704700220288BC
:100AC0001D4B98420ED01D4B98420BD0B0F1804F79
:100AD00008D01B4B984205D01A4B984202D01A4BB3
:100AE000984204D14FF68F731A404B881A43174B24
:100AF000984207D0164B984204D04FF6FF431A4055
:100B0000CB881A4302808B8883850B8803850A4B28
:100B100098420BD0094B984208D00E4B984205D012
:100B20000D4B984202D00D4B984201D10B7A0386AF
:100B30000123838270470000002C014000340140F3
:100B40000004004000080040000C0040001000407D
:100B500000140040004001400044014000480140B2
:100B600002480068401C0149086070472C000020C2
:100B70000448006820B103480068401E014908602D
:100B8000704700002800002010B540F2255122488F
:100B900000F0D9F800283DD01F4800F08FF9C4B20A
:100BA000542C03D101201D4908702EE0532C03D191
:100BB00001201B49087028E0462C03D1012000F0D9
:100BC000CFFA22E0592C03D10020164908701CE00E
:100BD0005A2C03D101201349087016E0412C03D18F
:100BE000302000F095F910E0422C03D1002000F0F5
:100BF0008FF90AE0442C03D101200B49087004E06E
:100C0000452C02D100200849087040F225510248C5
:100C100000F015F810BD0000003801404000002031
:100C200043000020420000203000002001F4007248
:100C3000B2F5007F00D100BFCA430280704710B5F3
:100C40000022002340F66A14A14200D100BF0A121C
:100C500001249440A3B2DC43048010BD21B18289F9
:100C600042F40052828104E082894DF6FF731A40FB
:100C70008281704700B587B001210420FFF75AFC3C
:100C800001218803FFF756FC4FF40070ADF81800FF
:100C900018208DF81B0003208DF81A0006A92148A2
:100CA000FFF73CFB4FF48060ADF8180004208DF88E
:100CB0001B0006A91B48FFF731FB4FF4C060FFF78C
:100CC0001DFC25208DF8040000208DF805008DF80E
:100CD000060001208DF8070001A8FFF7D7FB4FF4AD
:100CE000E13002900020ADF80C00ADF80E00ADF838
:100CF0001000ADF814000C20ADF8120002A90A484B
:100D000000F070F8012240F22551074800F045F844
:100D100001210548FFF7A2FF40210348FFF786FFA6
:100D200007B000BD00080140003801400246002025
:100D3000B1F5007F00D100BF13880B400BB101203B
:100D400000E00020704770B5024600240023002513
:100D5000002040F66A16B14200D100BFC1F342152F
:100D600001F01F03012606FA03F3012D02D1968933
:100D7000334006E0022D02D1168A334001E0968A04
:100D800033400C12012606FA04F41688344013B1DD
:100D90000CB1012000E0002070BDF0B50346002436
:100DA00000260025002040F66A17B94200D100BF96
:100DB0001846C1F3421401F01F06012707FA06F591
:100DC000012C01D10C3004E0022C01D1103000E0E4
:100DD00014301AB107682F43076002E00768AF4379
:100DE0000760F0BD2DE9F04786B005460E460024A9
:100DF000A24600BFA1460027B08900B100BF2F4620
:100E00002C8A4CF6FF700440F08804432C82AC8995
:100E10004EF6F3100440B0883189084371890843C5
:100E20000443AC81AC8A4FF6FF400440B0890443D0
:100E3000AC8201A8FFF78EFB1F48874202D1DDF884
:100E400010A001E0DDF80CA0A88900F4004040B13A
:100E50000AEBCA0000EB0A1031684900B0FBF1F858
:100E600007E00AEBCA0000EB0A1031688900B0FB0A
:100E7000F1F86420B8FBF0F004012009642101FBC3
:100E80001089A88900F4004040B1322000EBC9006D
:100E9000B0FBF1F000F00700044308E0322000EB63
:100EA00009106421B0FBF1F000F00F0004432C8125
:100EB00006B0BDE8F0870000003801400146888890
:100EC000C0F308007047C1F308028280704700BF7A
:100ED000FEE770B504460D4629462046FFF7F3FFAE
:100EE00000BF80212046FFF721FF0028F9D070BD08
:100EF00002E008C8121F08C1002AFAD170477047E3
:100F0000002001E001C1121F002AFBD17047000040
:100F100010B504462CB94FF448710748FFF7CCFDD3
:100F200008E04FF4C8710448FFF7C6FD21460248A7
:100F3000FFF7B9FD10BD00000034014000B589B0D5
:100F400001211020FFF7F6FA01214803FFF7F2FA1A
:100F500018208DF823004020ADF8200003208DF8E4
:100F6000220008A91948FFF7D9F940F21F30ADF85F
:100F700018002320ADF814000020ADF81A00ADF8D9
:100F8000160005A91248FFF799FD6020ADF804008E
:100F90000120ADF806000020ADF80C00ADF80A0005
:100FA00001A90B48FFF72AFD01210948FFF7FDFCC5
:100FB00008210748FFF76EFD01210548FFF7DAFC1D
:100FC00001210348FFF7E5FC09B000BD0010014016
:100FD000003401404FF4806002490860012002495A
:100FE00008707047100C01403700002008B501213F
:100FF0001020FFF79FFA10208DF803008001ADF854
:10100000000003208DF8020069460448FFF786F9C6
:101010004FF480600149086108BD000000100140E4
:101020001FB501210520FFF785FA08208DF8000083
:1010300000208DF8010002208DF8020001208DF8BB
:1010400003006846FFF722FA0420ADF80C008DF883
:101050000F0003A90C48FFF761F902210020FFF7F8
:101060003DF90420019000208DF8080010208DF833
:10107000090001208DF80A0001A8FFF7E5F8042017
:10108000FFF7C2F81FBD0000000801400021002248
:1010900000BF05E0002200E0521C482AFCD3491C96
:1010A0008142F7D3704700004FF400700249086096
:1010B0000120024908707047140C014036000020DE
:1010C00070B504460D4626460EE0701E86B2082016
:1010D000074908602846FFF7D9FF08200449091D81
:1010E00008602846FFF7D2FF002EEED170BD000049
:1010F0001008014008B501210420FFF71BFA102059
:101100008DF803000820ADF8000003208DF80200E0
:1011100069460248FFF702F908BD000000080140D7
:1011200008B501210820FFF705FA10208DF803000B
:101130004FF4F050ADF8000003208DF8020069462E
:101140000648FFF7EBF84FF40070044910310860CF
:101150004000091D086000F04FF908BD000C014077
:1011600010B504464FF4C871204600F033F9012051
:10117000034908700020034908700349088010BD26
:10118000390000203A0000203C000020FFF772FDEB
:10119000FFF75EF9FFF7D8FA00F07CF900F0F4F8F9
:1011A00000F0BEF8FFF722FFFFF7A4FFFFF738FFBC
:1011B000FFF7C4FEFFF7B4FF00204A4908704A4910
:1011C00008704A4908704A49087089E00020494976
:1011D00008704549087043480078012874D13221CD
:1011E0004FF4207000F03CF94FF4807042490860E1
:1011F000642000F08BF843214048FFF76AFE0CE0C2
:1012000080203D49091F08603220FFF73FFF802002
:10121000394908603220FFF739FF36480078002846
:10122000EED032214FF45C7000F094F84FF48060FF
:101230003349486104203349087011E008203249DD
:1012400008602820FFF722FF08202F49091D0860A9
:101250002820FFF71BFF24480078012800D100E078
:10126000ECE700BF052027490870282141F2707083
:10127000FFF726FF14214FF4C85000F06BF84FF42D
:1012800080601F4908610CE080201B49091F08602D
:101290001420FFF7FBFE8020174908601420FFF799
:1012A000F5FE114800780128EED014214FF4486073
:1012B00000F050F84FF480700F49091F0860642057
:1012C00000F024F80CE0FFE708480078012807D177
:1012D00000200649087032214FF4207000F0C0F859
:1012E00074E700004200002047000020400000207A
:1012F0003000002043000020140C01400038014061
:101300000010014046000020100801400349086019
:1013100000BF024909680029FBD17047280000205E
:1013200008B501210820FFF705F910208DF803000A
:101330000001ADF8000003208DF802006946044862
:10134000FEF7ECFF4FF4807001491031086008BDD2
:10135000000C014070B504460D4626460EE0701E96
:1013600086B28020074908602846FFF78FFE80205C
:101370000449091D08602846FFF788FE002EEED1BB
:1013800070BD0000100C014008B501210820FFF7D6
:10139000D1F810208DF803008020ADF80000032064
:1013A0008DF8020069460248FEF7B8FF08BD00004C
:1013B000000C014010B5014606E0482200BF131E94
:1013C000A2F10104E2B2FAD10B1EA1F10104A1B213
:1013D000F3D110BD012803D10203054B1A6004E0CC
:1013E0004FF48052024B1B1D1A60024A1180704755
:1013F000100C01403E0000201FB501210820FFF71E
:1014000089F841F61F40ADF804000920ADF8080046
:101410000020ADF80A00ADF8060001A90F48FFF75B
:101420004DFB012211460D48FFF7DFFA01210B4861
:10143000FFF7ACFA01210948FFF7ABFA32208DF82B
:10144000000000208DF8010002208DF8020001202C
:101450008DF803006846FFF719F81FBD000C004027
:1014600070B504460D4626460EE0701E86B240203A
:10147000074908602846FFF709FE40200449091D76
:1014800008602846FFF702FE002EEED170BD000076
:10149000100C014008B501210820FFF74BF810207F
:1014A0008DF803004020ADF8000003208DF8020005
:1014B00069460248FEF732FF08BD0000000C0140FB
:1014C000E0140008000000204C000000F00E0008AE
:1014D0002C1500084C0000200C100000000F000824
:1014E00000A24A0400000000000000000102030402
:1014F00006070809000000000102030401020304BA
:1015000006070809020406080000000000000000A9
:1015100000000000000000000000010000000000CA
:0C152000000000000202040000000000B7
:0400000508000131BD
:00000001FF
